:020000040000fa
:080000000002040000000000f2
:020000040000fa
:100400000f6f2200807f24000001880000000000a0
:10041000050007000c000700147f02000000000028
:100420000040da000000fe004440a900c0a92000fe
:100430000000e0000300320020002000a00188003e
:100440004440a8000000060020a023001100200066
:100450001600370062004000e080480091018800eb
:100460009001ba0062004000e080480091018800dd
:100470009002ba0062004000e08048000002eb00f9
:100480006028e10005003a008301e900070033001d
:10049000038009000059eb00040037006128e100e7
:1004a000010032000082eb00050007009101880086
:1004b0001001ba000200e000e6ff3a00000005006b
:1004c000910188008002780062004000e0804800ce
:1004d0003559ba008301e900080032002559ba00f5
:1004e0008301e900050032000400e000f4ff32005f
:1004f00015d9ba008301e900f1ff3a0000000600b7
:100500001a1b0400010000003c1b04000100000055
:10051000a231040001000000443304000100000087
:100520004604040000000000889fbe00800478009c
:1005300082db80000200e00002003200020078004e
:100540000c00370020b7210003003700918f5400c2
:10055000240036000180e800900078000100e000ef
:10056000faff3a000f003700918f54001d0036004b
:100570000180e800900078000100e000faff3a00f6
:100580001201780020b7210003003700918f54003a
:10059000140036000180e80090007800828f50003f
:1005a000faff3a0078db8000890f54000100310027
:1005b00009047800080078003e0107000000e00010
:1005c00004003a00890f5400050032000804d100ed
:1005d000f5ff3700081878002f000700d4ff370018
:1005e0000000eb004f04be0000000600881f7800ea
:1005f000630440000800a100800f5400230036006f
:10060000e30f540001003e0048002000080078007d
:10061000c5ff0700800078000000e0001b003200ea
:10062000100178009201780064805100880f50001a
:1006300003003100120090008008780007003700a6
:100640000800410080087800920190001300980093
:100650001100780012081400080978009100780051
:100660000100e00005003200110090000000e000f1
:10067000020032000180e800010037000000eb00ba
:1006800080db88000280e800010037000000eb00fa
:100690004f047800000006000000e0003000320047
:1006a0008080e90091027800e38f52002c00360030
:1006b0000508a3002a003a0092db80000200e00057
:1006c00002003200828f50000400310002087800de
:1006d00091db88001600370003017800920190003a
:1006e0000300e00002003200818f5100faff390060
:1006f0001202780004004100808f50001800390079
:10070000810f500003003a00050942008200780082
:10071000070037000300e0000300320005804000be
:10072000808f51000e00390093009800110198004d
:10073000110190000200e000090032001180400029
:10074000820f500006003a00703bef00110090004d
:10075000110178009008410010009000900098006e
:1007600000000600800078001104b100030035008d
:100770009101b10001003c000050a0000000060003
:100780008001780002003700815978000201e900f9
:100790000200e000fcff3a000000060000027800c2
:1007a00003003700035a78008100e8000201e900e5
:1007b0000200e00006003200914178000304e000ee
:1007c000f8ff3a00005aeb000201e900fdff3a0091
:1007d00000000600800078001106b100030035001b
:1007e0009101b10001003c000050a1000000060092
:1007f00080007800010037000000e8001004e000ed
:10080000fdff3a0001005000000006008001780062
:100810000001780031407800005978000004e000c1
:10082000fcff3a00030078000000060004003700d7
:100830000204e00001003a00000005000000e800aa
:1008400010417800814f5100f9ff3a000000060086
:100850008001780000017800010037000201e80003
:100860001204e000fdff3a00020037000201e80038
:100870008100e80011407800004978000004e000a1
:10088000faff3a000300780000000600881f780095
:10089000020478008e000700080040004f04780032
:1008a000000006000000fa00881f780000047800ad
:1008b0003fb99700ea81570080007800604420002b
:1008c0008a000700800078000000e0000200350088
:1008d0000040eb0080707c00010078004f0478003d
:1008e0000080fa00000006000c00370090417800fc
:1008f00091cf5100040032000081eb000a00390062
:1009000012002000080037000304e0000500320058
:100910000000e8008100e8000201e9000200e000b8
:10092000f2ff3a000001eb00020078000000060030
:10093000881f780000047800a0da80000000e00042
:100940000100320000000100567bef0070da8000e9
:100950000000e00001003200000001006140b8002a
:1009600080da880091da88004f04780000000600e1
:10097000889fbe00a0da80000000e0000100320085
:100980000000010070da80000000e0000100320089
:1009900000000100e0c480000000e000010032001f
:1009a00000000100b0c480000000e000010032003f
:1009b00000000100565be20024003a0078002000ad
:1009c000d26026009301200080da800091da800056
:1009d00009040700f2352f00e3c62300000141009f
:1009e0008181490082da880093da88000804e900ee
:1009f000f3ff3b00e9892100f8012000d2602600c6
:100a00009301200080da800091da8000fa03070069
:100a1000f2352f00e3c62300000041008180490029
:100a200080da880091da8800809cbe000804e90022
:100a3000f2ff3b00d0c88000e1c88000c0c488003d
:100a4000d1c4880010c0b30056fbb700d2602600a6
:100a50009301200080da800091da8000e60307002d
:100a6000f2352f00e3c623000000410081804900d9
:100a700080da880091da8800c2c480007f016100ba
:100a80004211dd00e3892100030141001202be0092
:100a9000c4c48800d5c488000089be00c0c48000da
:100aa000d1c480004008de0000f0a1004f04be0069
:100ab000000006000000e000030034009903070076
:100ac000e10f400001003a000000eb0000000600ca
:100ad0008001780002003700b15978000201e90076
:100ae0000200e000fcff3a00000006006200fa008d
:100af000889fbe008a9fbe000004be0002057800e9
:100b00008300780060f92f000f004000b00007005c
:100b100088979f0099979f000000eb00a09f9f007f
:100b20009a4578000b80fb000000ea00cf04de004d
:100b300050c2b30080cf5500020032000904780093
:100b4000010037000904e9000800e0000b00340050
:100b50001f909700080178008a0078008f91970015
:100b60000300010090979f000000e0009300320016
:100b70002f98970000004400a09f9f0009054500a2
:100b800050c2b30080cf5500040032000b04e000d7
:100b9000e3ff3a002f989700890037000000eb0030
:100ba000809f9f00f0979f00e0979f00d0979f0045
:100bb000c0979f00b0979f00c09f9f00090037001b
:100bc00000b02100008050000000400041af210033
:100bd000e08078004f98970001007000c09f9f0050
:100be0000a05e8001a4478008800fb0000b02100e4
:100bf0000eff0700800078000000e000f0ff3a00e0
:100c0000a0c2b300804f54000e003a00bf88970086
:100c10000180e900b08f9f0010007800b09f9f0016
:100c20000000e00005003d000000ea00b09f9f00ca
:100c30004f9897000020a000c09f9f000a05e80081
:100c400010003700b19f9f0009003700bf98970040
:100c5000f0ff2700808f5000040032006a08b900be
:100c60000000410003004000b09f9f000a05e8001b
:100c70001a01fb0003fd2f0003004100e90f5000a3
:100c8000f2ff3600e0c2b3009a4f100004003200b9
:100c90000080eb00909f9f008a0478001c003700c2
:100ca0008a04e800a0c2b300994f100007003a0080
:100cb000bf8897000180e900b08f9f001000780086
:100cc000909f9f008a84e800110037000000eb002d
:100cd000909f9f00090037009f989700f0ff270022
:100ce000808f5000040032006a08b9000000410003
:100cf00003004000909f9f008904e8001901fb0059
:100d000003fd2f0003004100e90f5000f2ff360001
:100d1000194478008800fb00802e2200c3fe0700e3
:100d20000000e00002003a000044780001003700b3
:100d30008904e800a87f9f0080c6b300804f54005c
:100d400004003a00994f14000a003a00664050002f
:100d500006003700c0c6b300804f540005003a00bb
:100d6000994f140003003a0065404000a07f9f00a7
:100d70008904e8000905e800cbfb2f008f854500ba
:100d80001901fb0060f92f000f0040000084e8000b
:100d90008b017800800078000800780011000700bf
:100da0000000e00005003a008b00780008007800a1
:100db000500107000000e00059ff3d000080eb00fb
:100dc0004f05be004f04be000080fa000000060080
:100dd0000200fa00f1bf9f00010878000080fa00cd
:100de00000000600889fbe008a1f7800000478007b
:100df000010278008244780003057800e0c6b30061
:100e0000804f5100d300320015003c006b40500071
:100e1000804f5100240032000a003c007040500016
:100e2000804f51001001320065404000804f51005a
:100e30007400320050c2b300804f510021013a00cb
:100e40001d01370040c6b300804f51001b00320027
:100e500065404000804f51001a013a0017003700ea
:100e600030c7b300804f5100ff00320007003c0044
:100e700064405000804f5100620032000040e800a2
:100e8000804f51000f013a00e800370050c7b3000f
:100e9000804f51005b00320063404000804f5100a2
:100ea00008013a00570037009180e900010a7800f4
:100eb0007800900011f0790008013700a8609000d8
:100ec000c0c6b30080cf50000a003a0094007800fa
:100ed00064805000000a78001000be004f89de00d8
:100ee000cf91de000002be0002037800820378008a
:100ef0001300370010c7b30080cf5000030032004a
:100f0000a0c6b30080cf500006003a0094007800dd
:100f100068805000000a78003002be002003be0046
:100f2000070037001480e900000a780010007800fc
:100f300000027800cfa2de00050378008603780067
:100f4000049cbe000694be00a860900080c6b3005a
:100f500080cf50000e00320020c6b30080cf50007a
:100f600005003a000400fb00cf80de00010178009c
:100f7000820178000a00370040c7b30080cf5000dc
:100f8000030032006640400080cf500006003a0067
:100f900004007800cf80de00010178008201780033
:100fa000009cbe000294be003800be002801be00b6
:100fb000e00f5000e08f5800e00f5900e08f59001b
:100fc00003003d0078009000d1c2b3000a00370052
:100fd000081090000018a300030032007800900071
:100fe000b1c2b300040037000008a300540032006f
:100ff0007800900001c2b30001707d000000e8009d
:101000004e003700a8609000c0c6b30080cf5000eb
:1010100007003a009400780064805000000a7800cd
:101020001002be000003eb008603780013003700b7
:1010300010c7b30080cf500003003200a0c6b30039
:1010400080cf500006003a0094007800688050007d
:10105000000a78003002be002003be0007003700ff
:101060001480e900000a780010007800000278007f
:10107000050020000600200007002000049cbe00a0
:101080000694be00a860900080c6b30080cf5000d8
:101090000e00320020c6b30080cf500005003a0099
:1010a0000480fb000100200002002000030020005b
:1010b0000a00370040c7b30080cf50000300320061
:1010c0006640400080cf500006003a0004007800df
:1010d000010020000200200003002000009cbe0050
:1010e0000294be00081090000038a30014003200e3
:1010f0003800be002801be00e00f5000e08f58000d
:10110000e00f5900e08f59000d00320080c7b30096
:1011100080cf54000300320080c5b30080cf54005c
:1011200007003a007800900001c3b30001707d0011
:101130008000e80089707d000080e800700498005d
:101140007800900000004500600498008940780015
:1011500042003700a8609000c0c6b30080cf5000a6
:10116000250032000a003c006440500080cf50004f
:101170002800320000c0e80080cf50001400320088
:101180006840500080cf500022003a000a0037002b
:1011900040c7b30080cf50001e00320066404000c0
:1011a00080cf50001b0032006940500080cf5000bb
:1011b00018003a00060037001480e900000a7800a1
:1011c00010007800485c900008487800450037001f
:1011d0001480e900000a7800100278006808900086
:1011e000cf80de000101780082017800009abe0005
:1011f0000292be003b0037001480e900000a78002c
:101200001001780068089000cf80de000089be00e1
:10121000340037001480e900000a780010007800dc
:10122000680c9000080878002e0037001180e90053
:101230008008780010007800cf80de00010178007f
:1012400082017800009cbe000294be0078009000ed
:10125000000045006004980081c7b30008007800d2
:10126000ee0007001f0037001480e900000a780034
:101270001000780060049800580990000200e00017
:1012800002003d005afd0700090037008000eb0016
:1012900099010700800078000000e00003003200a0
:1012a000680090000080500001003700580890004e
:1012b000100c98000b0037007800900002707d0041
:1012c0000600370078009000800045000904e00027
:1012d00001003a0059c2b300894878000000e800d4
:1012e000700498000000eb004f0578004f04be002a
:1012f000000006000400fa00889fbe008a9fbe001e
:101300008c1f7800000478000106780070089000b7
:10131000f800900001005000880890000100500083
:101320009808900001005000a808900001005000ab
:10133000b808900001005000c808900081055000d6
:1013400000022200a0bf9f000003230090bf9f0067
:10135000081090000028a30018003a000b00e000dd
:10136000160034008b04780009057800e28f5400e1
:10137000020036002a002000020037000900e000c9
:101380000b00340058009000c80190000a0178005a
:10139000ec80570003000100500498000000e000ba
:1013a000960032006808900000004500600c98002c
:1013b0008a8454004240a900ebff3c007801900071
:1013c0000200e0000b00340058009000c8019000bb
:1013d0008c00780003000100500498000000e00039
:1013e0008600320068089000f8009000010040007c
:1013f000600c9800880c90000900e0001500340093
:1014000009057800e28f5400020036002a0020000f
:10141000020037000900e0000b0034005800900083
:10142000c80190000a017800ee8057000300010017
:10143000500498000000e00070003200680890003e
:1014400000004500600c98008a8454004240a900c6
:10145000ebff3c00180990000200e0000b00340094
:10146000e800900058009000c801900003000100bf
:10147000500498000000e00060003200680890000e
:101480009808900001004000600c9800a80c9000a3
:101490000900e0001500340009057800e28f5400cf
:1014a000020036002a002000020037000900e00098
:1014b0000b00340058009000c80190000a01780029
:1014c000ee80570003000100500498000000e00087
:1014d0004a0032006808900000004500600c980047
:1014e0008a8454004240a900ebff3c003809900078
:1014f0000200e0000d003400e800900018089000a1
:101500008080400058009000c80190000300010056
:10151000500498000000e000380032006808900095
:10152000b808900001004000600c9800c80c9000c2
:101530000900e0001500340009057800e28f54002e
:10154000020036002a002000020037000900e000f7
:101550000b00340058009000c80190000a01780088
:10156000ee80570003000100500498000000e000e6
:10157000220032006808900000004500600c9800ce
:101580008a8454004240a900ebff3c000810900000
:101590000028a3001b0032000b00e00019003400fb
:1015a0008b04780009057800e28f540002003600b1
:1015b0002a002000020037000900e0000b00340080
:1015c00058009000c80190000a017800ec80570094
:1015d00003000100500498000000e0000700320002
:1015e0006808900000004500600c98008a84540050
:1015f0004240a90003003400eaff37000080eb00fe
:10160000010037000000eb004f0678004f05be00d8
:101610004f04be000080fa0000000600ef02b00098
:10162000889fbe008a9fbe008c9fbe008e1f7800e0
:101630008006780000012000b0b79f00f2a42100ce
:10164000c2b79f0080c5b30080cf50000e003200ab
:1016500083002000b3b79f00e4a32100c4b79f001c
:101660007740400080cf500007003200000120008a
:10167000b0b79f0080c7b30080cf50000200320097
:10168000a2002000b2b79f003d04be002d05be00a1
:1016900040c6b30080cf50000300320065404000d8
:1016a00080cf50000b003a00e00f5400e08f5c0048
:1016b000e00f5d00e08f5d0006003d006000b800b7
:1016c0006011b80008045000898458000a055900c8
:1016d0008b855900e00f5400e08f5c00e00f5d0047
:1016e000e08f5d0004003a005d0890008e0120004c
:1016f0000000e0000c003200bfb197000302780048
:10170000cfa2de0005037800860378000800be0043
:101710000a01be00470107004fb2970064407800fd
:10172000d0df9f007e0120003fb0970000027800cc
:10173000cfa2de0005037800860378000800be0013
:101740000a01be003401070023003700bfb0970034
:1017500001047800cfc4de00090578008a0578000e
:101760000802be000a03be007fa897008fb0970052
:101770001fb19700afb1970032010700d0b79f00ab
:10178000e1b79f00f2b79f0083bf9f000e07e900fb
:1017900062fc2f000f014100020647000802be0054
:1017a0000a03be005fb09700efb097007fb19700cb
:1017b0008fb997009f0107007faa97000000520091
:1017c000cfb0970060ce78005fb09700efb0970081
:1017d0007fb197008fb99700809ebe008296be00b1
:1017e0003d00be002d01be00f0af9f0081b79f00fd
:1017f00092b79f00a3b79f00e00f5000e08f580002
:10180000e00f5900e08f5900020034000e00e000a4
:10181000ceff3c00bfb09700e88f500010003a00a8
:101820000d1090000038a3000d003200f70f570094
:1018300006003e0062fc2f000f01410082004700bd
:1018400000c3b300914f1000050032000e07e900fd
:1018500000c3b30063fc2f008e81410080f17f0044
:1018600078011700920e98006d00900063fc2f0025
:101870008f8141008e80410095fc07001d0990007a
:101880005d089000800f510006003d0002005000ee
:10189000800e98000d1090000040a1008016980066
:1018a0000f0037000000e0000d003d000d1090001b
:1018b00074006000f00f500009003a007d089000ad
:1018c000fd009000010050008d08900001005000c4
:1018d000020050004240a90001003400800e980030
:1018e0004f0778004f06be004f05be004f04be00f4
:1018f000ef02b100000006000600370090cf100094
:1019000002003a0000017800040037000000e800ff
:101910000201e9000200e000f8ff3a00020078004e
:1019200000000600889fbe0080047800821be20051
:1019300004003a000000eb00100007000000e00087
:101940000a00350010dc80000900e00002003a00c7
:101950000004780006003700000478000900400009
:10196000060007000000e00001003d000084eb00dd
:10197000080078004f04be000000060080007800d8
:101980000000e00004003a00002f220010dc880074
:1019900001017800060037000081eb00006f220093
:1019a000808f500002003e0011dc88000001eb0037
:1019b00002007800000006006022b8000602200045
:1019c0000000d0008180d2000482d2008582d20043
:1019d0000000a0000202520083825a00030031007e
:1019e0000202420083824a000000a1000603e900cf
:1019f000f3ff3a0000000600020ab900001bb9001c
:101a00000200b8008100420081004300000006008f
:101a1000881f7800000478005001be004000be001e
:101a20000400400085804800060149008781490084
:101a3000009cbe000294be000400e1000588e100a5
:101a40000690e1000798e1000200310068004400c0
:101a50001008e8004f047800000006001000fa00ab
:101a6000889fbe008a9fbe003004be002005be00d5
:101a7000c8b79f00d9b79f00eab79f00fbb79f0088
:101a80000404540085845c0006055d0087855d00c4
:101a900088bf9f0099bf9f00aabf9f00bbbf9f0048
:101aa0000898be000a98be008000eb004fb4970073
:101ab000dfb497006fb59700ffb597000440e100d1
:101ac00005c8e10006d0e10007d8e10001003100bf
:101ad00011002000108810004f05be004f04be000a
:101ae0000080fa00000006001200fa00889fbe0085
:101af0008a9fbe008c1f78000205be000004be0055
:101b0000f4b79f0085bf9f0096bf9f00a7bf9f00af
:101b10000000eb00e0b79f00d0b79f00c0b79f0068
:101b2000b0b79f00a0b79f0000067800dfb0970015
:101b30006fb09700000140000000e0000a003d0087
:101b40008c00070001003d001200200092000700f9
:101b500001003d0012002000970007007c80570024
:101b6000abff0700090037008200070001003d00bd
:101b7000120020008800070001003d001200200034
:101b80008d0007007c805700b4ff07006fb29700fc
:101b90000400e000070035001000200001002000d4
:101ba0006011b80008047000898470000a05710093
:101bb0008b8571000c06e800f0032000800f5600b2
:101bc000daff34000400e00006003d007fb2970019
:101bd0008fba97001fbb9700afbb97007c80570060
:101be0008bff07006fa897000000e00004003a0098
:101bf0002fb49700bfb497004fb59700dfb597009b
:101c0000890007004f0678004f05be004f04be0054
:101c10000080fa0000000600881f780018002000ed
:101c2000881f7800b0ff07008f87e9004f04780015
:101c300000000600801feb00abff07008f87e90064
:101c400000000600889fbe008a9fbe008c1f78009f
:101c50006e00070005003d002f00070007003d0053
:101c60003d0007000006eb00040037003f000700be
:101c700002003d00300007001c0020006a00070041
:101c8000e5ff07000203be000002be000c00e000fa
:101c900001003200280007000400be000601be005b
:101ca0004f0678004f05be004f04be00000006003e
:101cb000889fbe008a9fbe008c1f780053000700db
:101cc00003003d001400070006003d00040037003b
:101cd0002600070003003d006000b8006011b80056
:101ce0001d00070050000700d2ff07000203be00de
:101cf0000002be000c00e000010032000e000700f0
:101d00000400be000601be004f0678004f05be006d
:101d10004f04be00000006006000b8006011b8006b
:101d200008045000898458000a0559008b85590021
:101d30001c002000030037006000b8006011b800ec
:101d400005003700e00f5200e08f5a00e00f5b0003
:101d5000e08f5b00000006000402500085825800fe
:101d60000603590087835900000006000006eb00b7
:101d7000f4ff37004f08de0000007100c0b79f007d
:101d800001804000b0b79f000001eb00afb09700aa
:101d90000100e0000000060002007000b0b79f00e4
:101da00001804000a0b79f000001eb009fb09700aa
:101db0000100e0000000060002007000a0b79f00d4
:101dc000018040000fb29700cf20de0001007000bc
:101dd00090b79f0004024200130007004f18de0076
:101de0000002720084b79f000804440089844c00fc
:101df0000a054d008b854d005fb29700efb297004a
:101e00007fb397008fbb9700000006000205be005d
:101e10000004be00e00f5000e08f5800e00f5900b2
:101e2000e08f5900000006000800be000a01be0055
:101e300000000600889fbe008a9fbe008c1f7800ad
:101e40000205be000004be000006eb00e00f5000db
:101e5000e08f5800e00f5900e08f590007003d0067
:101e60006000b8006011b800080450008984580070
:101e70000a0559008b8559001c002000e00f520014
:101e8000e08f5a00e00f5b00e08f5b0002003d0036
:101e90000f0007000c00a2000800be000a01be00ef
:101ea000120007000203be000002be000c00e000aa
:101eb00001003200060007000400be000601be005b
:101ec0004f0678004f05be004f04be00000006001c
:101ed0006000b8006011b80004025000858258000c
:101ee000060359008783590000000600889fbe0042
:101ef0008a9fbe008c9fbe000404b8000506b8008f
:101f00008904460060854e000606b8000a054600b2
:101f1000e0854e000706b8008b054600040eb800a9
:101f2000890446000a854e00e0854d00050eb80084
:101f30000a0546008b854e00060eb8008b0546004c
:101f40000416b8000a0546008b854e000516b80039
:101f50008b054600041eb8008b0546000800be0035
:101f60000a01be004f06be004f05be004f04be0072
:101f7000000006000600fa004a01370071622000e6
:101f800091407800c0cfb30000c0600027e6b700e2
:101f90002031800010d788007162200091407800c5
:101fa000c0cfb30000c060000004a00027e6b70067
:101fb0002031800020d78800716220009140780095
:101fc000c0cfb30000c060000014a00027e6b70037
:101fd0002031800030d7880027c6bf003040b300d2
:101fe00027e6b7002031800040d7880071622000ca
:101ff00091407800c0cfb30000c0600027e6b70072
:102000002031800050d78800716220009140780014
:10201000c0cfb30000c060000004a00027e6b700f6
:102020002031800060d788007162200091407800e4
:10203000c0cfb30000c060000014a00027e6b700c6
:102040002031800070d7880027c6bf003040b30021
:1020500027e6b7002031800080d7880011d78000a4
:1020600050d78000808f50000e013a0021d78000a9
:1020700060d78000808f50000a013a0031d780007d
:1020800070d78000808f500006013a0041d7800051
:1020900080d78000808f500002013a00e7dabf004d
:1020a0000080fb006101b900e0ff2f00f1ff2f006d
:1020b000020140008381480012079800230798001e
:1020c00000012000010020001e019000ae019000e0
:1020d000800f5100818f590014003e001e009000b7
:1020e000ae00900000600100170037001d003700af
:1020f00023003700290037002f0037003500370054
:102100003b00370041003700080037000700370068
:1021100006003700050037000400370003003700d1
:1021200041003700470037004d003700a0c4b3001e
:1021300070fab70010c6b30071fab700e0c6b3007a
:1021400072fab7004c00370060c4b30070fab700f1
:1021500050c6b30071fab70020c6b30072fab700d8
:1021600045003700d0c4b30070fab70010c6b30002
:1021700071fab70020c7b30072fab7003e0037000b
:1021800010c4b30070fab70000c7b30071fab7000b
:1021900020c7b30072fab70037003700d0c4b300cd
:1021a00070fab70010c6b30071fab70090c7b30059
:1021b00072fab70030003700a0c4b30070fab7005d
:1021c00050c7b30071fab700e0c6b30072fab700a7
:1021d00029003700a0c4b30070fab70050c7b3009d
:1021e00071fab700c0c6b30072fab7002200370018
:1021f00010c4b30070fab70050c7b30071fab7004b
:1022000070c6b30072fab7001b00370030c5b300c8
:1022100070fab70050c6b30071fab70000c7b30038
:1022200072fab70014003700f0c4b30070fab700b8
:1022300030c6b30071fab70040c7b30072fab700f6
:102240000d003700e0c4b30070fab700f0c6b30069
:1022500071fab70060c7b30072fab7000600370022
:1022600040c4b30070fab70050c6b30071fab700ab
:1022700030c6b30072fab70000c2b30073fab700f9
:10228000c0c2b30076fab70000c2b30077fab70055
:1022900020c3b30078fab70000c3b30079fab700df
:1022a000e6dabf000080fb004400de000043b0001f
:1022b00074fab700e6dabf006f4060000043b00078
:1022c00075fab700e8dabf000080fb004400de00ca
:1022d0000043b0007afab700e8dabf006f40600050
:1022e0000043b0007bfab7000040eb007cfab70077
:1022f000e5dabf000080fb00000f78009e00780048
:10230000e38f5000280032001e017800e30f5100d7
:1023100007003c009e017800e18f5100140032005c
:102320001e007800e20f500018003200090037004c
:102330009e007800e58f5000290032001e017800d1
:10234000e50f51001f0035009e017800e68f510017
:102350002a00320030c5b30060fab70050c7b3009e
:1023600061fab700e0c6b30062fab700290037008f
:10237000d0c4b30060fab700f0c6b30061fab7008a
:10238000e0c6b30062fab7002200370040c5b300d0
:1023900060fab70050c7b30061fab70050c6b30087
:1023a00062fab7001b00370070c5b30060fab700cf
:1023b00050c6b30061fab70040c6b30062fab70076
:1023c0001400370040c5b30060fab70080c6b30000
:1023d00061fab70050c7b30062fab7000d003700ca
:1023e00060c4b30060fab70020c7b30061fab70059
:1023f00090c6b30062fab7000600370030c5b300dc
:1024000060fab70010c6b30061fab70040c7b30066
:1024100062fab70000c2b30063fab700a0c3b3000a
:1024200066fab700a0c3b30069fab700e4dabf00e8
:102430000080fb004400de000043b00064fab700f7
:10244000e4dabf006f4060000043b00065fab700f7
:10245000e3dabf000080fb004400de000043b00070
:1024600067fab700e3dabf006f4060000043b000d6
:1024700068fab700e2dabf000080fb004400de002b
:102480000043b0006afab700e2dabf006f406000b4
:102490000043b0006bfab7000040eb006cfab700e5
:1024a00003003700f2dabf000004e000b3fe3200a0
:1024b0000080fa00000006000000fa0021742000ed
:1024c00020c0b30062c4b30073c5b3008248780073
:1024d00083487800804878000000eb0030318800a5
:1024e0003800070027e6a80027e6a80010c0b300c0
:1024f0003f000700a0c0b3005e000700a0c0b3000b
:102500007d00070020c0b300edfab70010c0b30093
:10251000f2fab700d0c0b300db000700b0c0b300d0
:102520002401070070c0b300420107000200070049
:102530000080fa00000006000000fa0021000700f9
:102540007162200091407800c0cfb30000c06000ed
:1025500027e6b70050d78000203188007162200044
:1025600091407800c0cfb30000c060000004a0001c
:1025700027e6b70060d78000203188007162200014
:1025800091407800c0cfb30000c060000014a000ec
:1025900027e6b70070d780002031880027c6bf002b
:1025a0003040b30027e6b70080d780002031880094
:1025b00027a6a9000040eb00f2fab7000080fa005d
:1025c000000006000000fa000500fc00570520008e
:1025d000373b8800a80a2000383b880027a6a800bf
:1025e00000000000000000000080fa00000006006b
:1025f0000200fa00004f780000c0eb009e4f100070
:1026000002003a00b0c3b300004f7800c0c3b3006b
:102610009e4f100002003a000040eb00004f78008f
:102620001e80fb00a2002000110009000280d800db
:102630000080fb004400dd00804078001e80fb002d
:10264000a2002000811f7800110009000280d8003c
:102650000001780001007800cf00780000c0700011
:10266000eafab70010c0b300f2fab7000080fa002f
:10267000000006000200fa00004f780000c0eb00e6
:102680009e4f100002003a00b0c3b300004f780024
:10269000c0c3b3009e4f100002003a000040eb00a0
:1026a000004f78001e80fb00a200200011000900ee
:1026b0000280d8000080fb004400dd0080407800ec
:1026c0001e80fb00a2002000811f7800110009007d
:1026d0000280d8000001780001007800cf00780067
:1026e00000c07000ebfab70010c0b300f2fab700f8
:1026f0000080fa00000006000200fa00004f780097
:1027000000c0eb009e4f100002003a0070c1b30001
:10271000004f780080c1b3009e4f100002003a00c5
:102720000040eb00004f78001e80fb00a20020005c
:10273000110009000280d8000080fb004400dd0089
:10274000804078001e80fb00a2002000811f7800de
:10275000110009000280d800000178000100780013
:10276000cf00780000c07000ecfab70010c0b300d2
:10277000f2fab7000080fa00000006000800fa0034
:10278000f0dabf000080fb004400de000080fb00a8
:102790006a00b90080007800f0dabf000080fb001a
:1027a0006f0060000080400030079800efdabf0043
:1027b0000080fb004400de000080fb006a00b900de
:1027c00080007800efdabf000080fb006f0060003f
:1027d0000080400020079800eedabf000080fb0078
:1027e0004400de000080fb006a00b9008000780031
:1027f000eedabf000080fb006f0060000080400048
:10280000100798003e009000c200de003e009000dd
:1028100000804000660f40002e0090008000e9001c
:10282000404b2b00614078000000fb001e0f400071
:102830001e0090001e0f40003e00900063006000ec
:102840000000e00004003a002e009000e20f50006b
:1028500001003e001e0fe9001e00780072002000fb
:10286000110009000280d8008000fd00000f7800f0
:102870001e007800edfab70010c0b300f2fab700fe
:102880000080fa00000006000800fa006047980087
:10289000efdabf000080fb004400de000080fb0098
:1028a0006a00b90080007800efdabf000080fb000a
:1028b0006f0060000080400010079800f0dabf0051
:1028c0000080fb004400de000080fb006a00b900cd
:1028d00080007800f0dabf000080fb006f0060002d
:1028e00000804000000f78001e0090008000e9008a
:1028f000004c2b00614078000000fb00200798008e
:102900001e009000e20f500007003a009e00780081
:10291000638060000000e00003003a002e00900099
:102920000000e800200798006e4090000004e000de
:1029300002003a002e009000604798006e40900020
:102940008080fb002e009000808f50000200360037
:1029500010c0b300604798006e4090000080fb00fc
:10296000a2002000110009000280d8000080fb00b6
:102970004400dd00804078006e4090000080fb0045
:10298000a2002000811f7800110009000280d800f9
:102990000001780001007800cf00780000c07000ce
:1029a000eefab70010c0b300f2fab7000080fa00e8
:1029b000000006000200fa00004f78001e04e0004c
:1029c00002003a00c0c0b300004f7800c0c0b3009e
:1029d0009e4f10000200360010c0b300004f780078
:1029e0001e80fb00a2002000110009000280d80018
:1029f0000080fb004400dd00804078001e80fb006a
:102a0000a2002000811f7800110009000280d80078
:102a10000001780001007800cf00780000c070004d
:102a2000effab70010c0b300f2fab7000080fa0066
:102a3000000006000200fa00004f780000c0eb0022
:102a40009e4f100002003a0030c6b300004f7800dd
:102a500040c6b3009e4f100002003a000040eb0059
:102a6000004f78001e80fb00a2002000110009002a
:102a70000280d8000080fb004400dd008040780028
:102a80001e80fb00a2002000811f780011000900b9
:102a90000280d8000001780001007800cf007800a3
:102aa00000c07000f0fab70010c0b300f2fab7002f
:102ab000eedabf000080fb004400de000080fb0077
:102ac0006a00b90080407800eedabf006f40600015
:102ad00000c040006cff07000080fa000000060004
:102ae0000600fa00204798003147980011a3210002
:102af000914078002e40900080cf500003003200bb
:102b0000600020002007980019003700e0d88000fe
:102b1000000f7800120037001e007800c0589000a7
:102b20003e40900080cf50000b003a009e0078009d
:102b3000214090000030a100a04098009e00780045
:102b4000214090000040a100a04098000000eb0050
:102b500020079800060037001e007800100f78004c
:102b60001e00e000ecff3a00400120002007980022
:102b70002e0090000080fa00000006001000fa000d
:102b8000004f7800114798002247980023079800cb
:102b9000340798004507980056079800474f98005b
:102ba00031dabf009e4f5000030032006000200069
:102bb0007007980053003700c1d1800000f020005a
:102bc0008080600000402000808f500003003200b1
:102bd00011002000710798004a003700e0d88000fb
:102be000a040900000c8b30000c060000004e000f6
:102bf00003003a00000120007007980041003700f0
:102c00002e409000eb4f500002003a000040eb00d5
:102c1000de0d07002e409000e14f500005003a0005
:102c20002e0090000000e00002003a003e009000fc
:102c3000d60d0700f0d880009e4090000148780033
:102c4000f0d880000000e800ae4090000148780015
:102c5000f0d880008080e8002e0090008048780046
:102c6000f0d88000e30040002e0090004800de0015
:102c700080487800f0d88000e40040003e009000da
:102c800080487800f0d88000e50040003e009000c9
:102c90004800de0080487800f0d88000e600400060
:102ca0004e00900080487800f0d88000e700400097
:102cb0004e0090004800de00804878004e489000aa
:102cc0000004e00007003a00f1d88000e0d880005e
:102cd0004e029000de01900082002000220b0700cf
:102ce00006003700f1d88000e0d880004e02900046
:102cf000de01900082002000dd0a07000000eb00ea
:102d0000700798007e0090000080fa000000060026
:102d10000400fa00004f7800c0d1800001f02000cc
:102d2000010060000000e00003003a0010032000f2
:102d3000100798001d003700c1d1800000f020006e
:102d40008080600000402000808f50000b003a001f
:102d5000c0d18000010f200001006000f00f500082
:102d600003003a00a0032000100798000f0037006e
:102d700000032000100798000c003700c1d180002c
:102d800000f020008080600000502000808f500004
:102d900004003a0032dabf000080fb001007980000
:102da0000200370020032000100798001e0090004a
:102db0000080fa00000006000600fa00008fbe0046
:102dc000e0d880000000e0000e003a002002200061
:102dd000f602020000000000e0d88800e0d8800081
:102de0000000e00003003a000000eb00200798001c
:102df00012003700e1d880000000eb008008780066
:102e000001003700760a0700e0d8800010d1880062
:102e10000000eb00c0d188000080eb00d0d188001a
:102e20000040eb0030fab7000040eb0031fab70089
:102e30003c1aa80010002000200798002e009000e7
:102e40000080fa00000006000c00fa0020479800fd
:102e500031479800220798003407980045079800ea
:102e600011a32100914078002e40900080cf5000a7
:102e70000300320060002000500798004700370030
:102e8000c1d1800000f02000808060000040200060
:102e9000808f50000300320010002000500798007f
:102ea0003e003700e0d88000000f78003700370080
:102eb0001e007800c05890003e40900080cf500027
:102ec00030003a001e007800e0089000003020003a
:102ed000008060000000e00003003a008001200054
:102ee000500798002d0037001e00780040589000d1
:102ef0000004e00003003500500120005007980056
:102f0000260037001e0078002040900068406000d6
:102f10000004e00003003200100120005007980078
:102f20001e0037001e0078002040900070406000b6
:102f30000004e00003003200200120005007980048
:102f4000160037001e007800a040900000c8b300b3
:102f500000c060000004e00003003a00000120000f
:102f6000500798000d0037003e019000ae00900021
:102f70001e007800c10a07000000eb00500798000f
:102f8000060037001e007800100f78001e00e000d9
:102f9000c7ff3a0040012000500798005e009000f3
:102fa0000080fa00000006000400fa00004f7800dc
:102fb00031dabf009e4f5000030032006000200055
:102fc000100798000c003700c0d1800001f02000ed
:102fd000010060000000e00003003a003000200023
:102fe00010079800040037000000eb00c0d18800f3
:102ff0000000eb00100798001e0090000080fa000f
:10300000000006000400fa00004f780031dabf002b
:103010009e4f50000300320060002000100798000f
:103020000c003700c1d1800000412000808f50008b
:103030000300320030002000100798000500370020
:10304000c0d180000000e800c0d188000000eb0083
:10305000100798001e0090000080fa000000060093
:103060000400fa00004f78001147980031dabf00e1
:103070009e4f5000030032006000200010079800af
:1030800015003700c1d1800000f020008080600072
:1030900000402000808f500003003200100020000c
:1030a000100798000c003700a30d07000000e00097
:1030b00003003200200020001007980006003700af
:1030c0001e4090002efab70000332000c0d18800c7
:1030d0000000eb00100798001e0090000080fa002e
:1030e000000006000200fa000000eb004024880007
:1030f00031dabf000004e0000e0032000040eb00b7
:10310000004f780031dabf002400200005002000c5
:103110000e017800e1002000cad302000000000088
:1031200031dabf001300200012a32100710020003b
:10313000da0a07006000b8001fff07000080fa00ed
:10314000000006000400fa00004f780031dabf00ea
:103150009e4f5000030032006000200010079800ce
:103160000c003700c1d1800000402000808f50004b
:1031700003003200300020001007980005003700df
:103180009404a90000412000c0d188000000eb0099
:10319000100798001e0090000080fa000000060052
:1031a0002a00fa00881f7800d0d18000e10f40008b
:1031b00004003200d0d18000c0d188000080eb0034
:1031c000d0d18800c0d1800001f020000100600053
:1031d0004017980000202000ce109000808f5000f3
:1031e0005602320000202000ce109000808f500048
:1031f00008003e004e1090000000e0001200320077
:1032000000102000ce109000808f5000a4003200eb
:103210009f05370000402000ce109000808f5000a6
:103220001005320000502000ce109000808f50001a
:103230004905320000302000ce109000808f5000f1
:103240009d02320092053700c1d18000000f20009e
:1032500080806000311798003e109000f00f500001
:103260005a00320000022000be109000808f5000f3
:10327000600032003e1090000000e00001003200cb
:103280008305370097ff0700e1d880000000eb00be
:1032900080087800e1d880000000eb0090009800e2
:1032a000e1d88000314090000000a000b0409800bc
:1032b000e1d88000214090000070a000a04098005c
:1032c000e1d8800000042000c0009800e2d880000f
:1032d0006000b8000009980011099800e1d880004a
:1032e0000040eb00c0589800e1d880000040eb009f
:1032f00080589800e1d88000610890000080a1000b
:103300000090a100e008980030c0b3001efab7009a
:103310000040eb002efab7000040eb002ffab70098
:103320000040eb0030fab7000000eb00b0d188009d
:103330000000eb0060248800f00f2000502488007b
:103340000000eb0010248800f00f2000002488000b
:103350000000eb0080248800f00f2000702488001b
:103360008cc4a800002021004800de00c024880092
:1033700080002000a0248800a0002000a024880055
:1033800080002000a0248800c00320003024880092
:1033900020012000302588000000eb004025880037
:1033a0000000eb00b0248800aae4a900a0042000db
:1033b00000258800c1d1800000ff2000008060004f
:1033c00070004000c0d18800310537003cdabf00f2
:1033d000614060000004e0002d053200c1d1800092
:1033e00000ff20000080600070004000c0d1880015
:1033f00027053700e80047000040eb0080487800d0
:10340000e800470020c3b3009040980068014700df
:103410002400200005002000d100200000c0eb00a7
:10342000cad30200000000000000e00018003200d3
:10343000100020004024880071048000f0fb2f0061
:10344000008060007004880071068000f00f2f007b
:103450000080600070068800710680000060200017
:103460000080700070068800f104800000042000d5
:1034700000807000f0048800c1d1800000ff2000af
:103480000080600070004000c0d188000005370057
:103490003c1aa90000012000c0d18800fc043700bc
:1034a000c0d18000010f20000100600020179800ab
:1034b00000022000ae109000808f5000b200320059
:1034c00000022000ae109000808f500007003e00e8
:1034d0002e1090000000e0000d003200ae109000b1
:1034e000f08f500029003200e9043700000320006b
:1034f000ae109000808f50002f0132000004200099
:10350000ae109000808f500085013200e00437003b
:10351000c0d180006f006000101798001e1090004e
:10352000e10f5000da0432009e109000e18f50004d
:10353000040039001e109000e20f50000d00320010
:10354000d304370010002000502488008c04a80009
:10355000b00f200000d18800000420000024880063
:1035600082c4a800c0d180000000e800c0d188005b
:10357000c7043700c1d1800000ff20000080600038
:1035800070004000c0d18800c1043700c0d1800065
:103590006f006000001798008e109000e28f5000be
:1035a000640032000e109000e20f500004003e0054
:1035b0008e1090000100e00008003200b4043700d3
:1035c0000e109000e30f5000b10432008e109000f6
:1035d000e48f500062003200ad043700f0d8800064
:1035e0000000e00005003200f0d880004c0302002b
:1035f000000000000000eb00f0d8880080002000f0
:10360000f602020000000000f0d88800f0d8800028
:103610000000e00005003a0030c3b30032fab70002
:1036200000502000c0d18800990437000040eb0012
:103630002efab7000040eb002ffab7000000eb00b5
:10364000b0d1880030c0b3001dfab700d000200010
:10365000502588000000eb00602588000000eb008a
:10366000702588000000eb00802588000000eb003a
:10367000902588000000eb00a02588000000eb00ea
:10368000b02588000000eb00c02588000000eb009a
:10369000d02588000000eb00e02588000000eb004a
:1036a000f02588000000eb00002688000000eb00f9
:1036b000102688000000eb00202688000000eb00a8
:1036c000302688000000eb00402688004149200099
:1036d0009140780000c8b30000c060000004e00022
:1036e00006003a00361aa80000c8b30030fab70046
:1036f00000082000b0248800aae4a8009424a800b0
:103700009424a900369aa90036baa9009484a80086
:103710003003200000d1880000042000002488002d
:1037200082c4a800c0d180000000e800c0d1880099
:10373000570437009484a9009404a800b000200026
:1037400000d18800000420000024880082c4a80062
:10375000c0d180000000e800c0d188004c043700d0
:10376000f000200060248800f00f200080248800f2
:10377000c1d1800000ff2000008060007000400088
:10378000c0d1880042043700c0d180006f006000c3
:10379000700f98007e089000e10f50003a00320050
:1037a000fe089000e18f5000040039007e08900070
:1037b000e20f50004f00320035043700d0d88000af
:1037c0000000e00005003200d0d880004c03020069
:1037d000000000000000eb00d0d88800f1d8800085
:1037e00000c8b30080487800f0d880008000e8006e
:1037f00060c0b30080487800f0d880008080e80086
:103800000040eb0080487800f0d88000e3004000e2
:1038100010c0b30080487800f0d88000e400400079
:103820000040eb0080487800f0d88000e5004000c0
:103830000040eb0080487800f0d88000e6004000af
:1038400080c0b30080487800f0d88000e7004000d6
:103850000040eb0080487800f0d88000f1d880006c
:10386000e5d88000840020008001780082002000dc
:1038700005007800fe070700c0d180000000e800c6
:10388000c0d1880002043700e0d88000a04090003a
:1038900000c8b30000c060000004e000fc03320078
:1038a000e0d88000204090000044b2000004e00016
:1038b0000e003200f0d88000640040001040780014
:1038c000e94f500005003a0050c3b30032fab70088
:1038d00000502000c0d18800ed033700c0d1800027
:1038e0000000e800c0d18800e9033700d5040700d4
:1038f000e7033700f0d88000104078000080fb001c
:10390000f602020000000000d0d88800d0d8800065
:103910000000e00005003a0030c3b30032fab700ff
:1039200000502000c0d18800d9033700d1d88000d2
:10393000f0d880001040780080487800e1d88000fe
:10394000f0d88000704090000080fb00c00098001c
:10395000f0d880004c030200000000000000eb00e3
:10396000f0d88800e0d8800040009000f602020005
:1039700000000000f0d88800f0d880000000e000cf
:1039800005003a0030c3b30032fab70000502000ff
:10399000c0d18800be03370030c0b3001dfab700a5
:1039a000c1d1800000ff2000008060007000400056
:1039b000c0d18800b6033700c0d180006f0060001e
:1039c000600f9800ee089000e18f50003b0032003d
:1039d0006e089000e10f500004003900ee089000de
:1039e000e28f500046003200a903370094c4bf00a4
:1039f0000042b2000004e000a5033a00f1d88000c4
:103a000000c8b30080487800f0d880008000e8004b
:103a100060c0b30080487800f0d880008080e80063
:103a20000040eb0080487800f0d88000e3004000c0
:103a300010c0b30080487800f0d88000e400400057
:103a40000040eb0080487800f0d88000e50040009e
:103a50000040eb0080487800f0d88000e60040008d
:103a6000d0d880001040780080487800f0d88000de
:103a7000e70040000040eb0080487800d0d880008c
:103a8000104078000080fb00d1d88000f5d880007d
:103a9000e6d88000000278008101780082002000d2
:103aa000850078000600780071070700c0d180000b
:103ab0000000e800c0d1880075033700e0d880001e
:103ac000a040900000c8b30000c060000004e00007
:103ad0006f033200e0d88000204090000044b20024
:103ae0000004e00004003200c0d180000000e800c3
:103af000c0d1880066033700520407006403370012
:103b000030c0b3001dfab700c1d1800000ff200013
:103b10000080600070004000c0d188005c03370066
:103b2000a9040700c1d1800000f0200000806000df
:103b30000010b000c0d1880055033700c0d180000c
:103b4000010f2000010060000000e00001003200d1
:103b50004f033700c0d180006f006000500f980005
:103b60005e089000e10f500032003200de08900045
:103b7000e18f5000040039005e089000e20f500011
:103b80003d0032004203370010c0b30031fab700e5
:103b9000f1d880000040eb0080487800f0d8800029
:103ba0008000e80050c0b30080487800f0d8800062
:103bb0008080e80031dabf0080487800f0d88000cb
:103bc000e30040000040eb0080487800f0d880001f
:103bd000e40040000040eb0080487800f0d880000e
:103be000e50040000040eb0080487800f0d88000fd
:103bf000e60040000040eb0080487800f0d88000ec
:103c0000e70040000040eb0080487800f1d88000d9
:103c1000e0d880000002eb008001eb008200200071
:103c200051070700c0d180000000e800c0d1880023
:103c300017033700e0d88000a040900000c8b30010
:103c400000c060000004e00011033200e0d88000f2
:103c5000204090000044b2000004e0000400320064
:103c6000c0d180000000e800c0d188000803370000
:103c7000f40307000603370036dabf006140600036
:103c80000080fb004700dd008040780031dabf0093
:103c900000c0700030fab70030c0b3001dfab700a2
:103ca000c1d1800000f02000008060000010b00052
:103cb000c0d18800f6023700c0d18000010f20007b
:103cc00001006000400f980000022000ce08900024
:103cd000808f5000c900320000022000ce08900002
:103ce000808f500007003e004e0890000000e0006a
:103cf0000d003200ce089000f08f500023003200fb
:103d0000e302370000032000ce089000808f5000af
:103d10002701320000042000ce089000808f500060
:103d2000c1013200da023700d0d880001050900074
:103d30001cfab7000c003700b0d8800010009000cb
:103d400010079800b0d88000100078004c030200e3
:103d500000000000b0d880004c030200000000000a
:103d60001e009000b0d88800b0d880000000e000ad
:103d7000f1ff3a00c1d1800000ff20000080600008
:103d800070004000c0d18800c1023700c0d180005f
:103d90006f006000300f98003e089000e10f500067
:103da00033003200be089000e18f5000040039005b
:103db0003e089000e20f50003e003200b40237008f
:103dc000f1d8800000c8b30080487800f0d88000a7
:103dd0008000e80060c0b30080487800f0d8800020
:103de0008080e8001cdabf000040e90080487800cd
:103df000f0d88000e300400020c0b3008048780085
:103e0000f0d88000e40040000040eb0080487800db
:103e1000f0d88000e50040000040eb0080487800ca
:103e2000f0d88000e600400080c0b30080487800f1
:103e3000f0d88000e70040000040eb0080487800a8
:103e4000f0d88000f1d88000e5d880008400200000
:103e500080017800820020000500780084060700b9
:103e6000c0d180000000e800c0d18800880237007f
:103e7000e0d88000a040900000c8b30000c06000ff
:103e80000004e00082023200e0d880002040900070
:103e90000044b2000004e00004003200c0d1800001
:103ea0000000e800c0d188007902370065030700f0
:103eb0007702370060002000f602020000000000d8
:103ec000100798001e0090000000e00005003a0076
:103ed00030c3b30032fab70000502000c0d18800d0
:103ee0006b0237001e049000f0d880006300400091
:103ef000104078000080fb00c800dd00f0d8800092
:103f00000080e800104078000080fb000080400046
:103f1000f602020000000000000c78001800780093
:103f20000000e0000a003a001e0090004c0302006e
:103f3000000000000000eb001007980030c3b30041
:103f400032fab70000502000c0d18800500237007c
:103f50001e0090001000780000017800f0d880006a
:103f600063004000104078000080fb00c800dd00c6
:103f7000f0d880000080e800104078000080fb004e
:103f800080814000f00f200080806100224090007e
:103f9000604060000140700020419800c818de00b9
:103fa0003240900060406000014070003041980055
:103fb0009e009000b0d88000900098001e009000f5
:103fc000b0d888001e00900010007800c0d888008b
:103fd0009e0090001cdabf00c040980030c0b300c3
:103fe0001dfab700c1d1800000ff200000806000f2
:103ff00070004000c0d1880025023700c0d1800089
:104000006f006000200f9800ae089000e18f500014
:10401000450032002e089000e10f500004003900e6
:10402000ae089000e28f50005000320018023700b6
:10403000f1d8800000c8b30080487800f0d8800034
:104040008000e80060c0b30080487800f0d88000ad
:104050008080e8001cdabf000040e900804878005a
:10406000f0d88000e300400020c0b3008048780012
:10407000f0d88000e40040000040eb008048780069
:10408000f0d88000e50040000040eb008048780058
:10409000f0d88000e6004000b0d880001000780022
:1040a0000080e8001040780080487800f0d8800058
:1040b000e7004000b0d880001000780063004000a6
:1040c0001040780080487800b0d880001000780058
:1040d00080007800214090000081fb00314090007a
:1040e0000080fb004800dd000200700080007800c6
:1040f000b0d8800010007800f5d88000e6d88000a5
:10410000010278008001780082002000850078009c
:1041100006007800d6050700c0d180000000e80046
:10412000c0d18800da013700e0d88000a0409000bc
:1041300000c8b30000c060000004e000d4013200f9
:10414000e0d88000204090000044b2000004e0006d
:1041500004003200c0d180000000e800c0d1880017
:10416000cb013700b7020700c901370030c0b300e8
:104170001dfab7001cdabf000040e9001cfab700c6
:104180001cdabf000004e000030032000031200010
:10419000c0d18800be013700c1d1800000ff2000df
:1041a0000080600070004000c0d18800b801370076
:1041b000c0d180006f006000100f98001e089000b2
:1041c000e10f5000420032009e089000e18f500045
:1041d000070039001e089000e20f500079003200fd
:1041e0009e089000e38f500087003200a80137003e
:1041f000540507002edabf000004e00011003a0069
:10420000b0d88000300798000a0037003e009000c8
:1042100010007800c0d88800d00607000000e00039
:104220001f003a00470507003e00900090009000f4
:10423000310798003e0090000000e000f3ff3a00d4
:1042400017003700b0d8800030079800030037000f
:104250003e00900090009000310798003e009000d2
:104260000000e000050032003e009000c0409000d9
:104270002edabf0080cf5000f5ff3a003e009000dc
:1042800010007800c0d88800b40607000000e000e5
:1042900003003a002b0507000000eb0030079800f0
:1042a0003e0090000000e00005003a0040c3b3006b
:1042b00032fab70000502000c0d1880074013700e6
:1042c000c0d180000000e800c0d188007001370034
:1042d00036dabf00644060000004e00033003a00ba
:1042e000365aa800f1d880000040eb0080487800e2
:1042f000f0d880008000e80030c0b300804878002b
:1043000036dabf00684060000004e00005003200bb
:10431000f0d880008080e80030c0b300804878008a
:1043200004003700f0d880008080e80040c0b3006f
:1043300080487800f0d88000e30040000040eb00a7
:1043400080487800f0d88000e40040000040eb0096
:1043500080487800f0d88000e50040000040eb0085
:1043600080487800f0d88000e60040000040eb0074
:1043700080487800f0d88000e70040000040eb0063
:1043800080487800f1d88000e0d880000002eb007f
:104390008001eb008200200073050700c0d180007f
:1043a0000000e800c0d1880039013700c1d1800089
:1043b00000ff20000080600070004000c0d1880035
:1043c00033013700e0d88000a040900000c8b3005f
:1043d00000c060000004e0002d013200e0d8800041
:1043e000204090000044b2000004e00004003200cd
:1043f000c0d180000000e800c0d18800240137004f
:10440000100207002201370030c0b3001dfab700c8
:10441000c1d1800000ff20000080600070004000db
:10442000c0d188001a013700c0d180006f00600041
:10443000000f98000e089000e10f5000330032008a
:104440008e089000e18f5000070039000e089000a0
:10445000e20f50003e0032008e089000e38f5000c3
:10446000410032000a013700f1d880000040eb0023
:1044700080487800f0d880008000e80090c0b30049
:1044800080487800f0d880008080e8002edabf00f5
:1044900080487800f0d88000e30040000040eb0046
:1044a00080487800f0d88000e40040000040eb0035
:1044b00080487800f0d88000e50040000040eb0024
:1044c00080487800f0d88000e60040000040eb0013
:1044d00080487800f0d88000e70040000040eb0002
:1044e00080487800f1d88000e0d880000002eb001e
:1044f0008001eb00820020001b050700c0d1800076
:104500000000e800c0d18800e1003700e0d880005a
:10451000a040900000c8b30000c060000004e000ac
:10452000db003200e0d88000204090000044b20060
:104530000004e00004003200c0d180000000e80068
:10454000c0d18800d2003700be010700d00037007c
:1045500030c0b3001dfab700c0d180000000e800f1
:10456000c0d18800ca003700c1d1800000f020000f
:10457000008060000010b000c0d1880036dabf00b3
:104580000044b2000004e0001600320033dabf003d
:10459000004f78001e80fb00c300dd0060aa2100f0
:1045a00000804000100278001e80fb004300dd0008
:1045b000e400400060aa2100008040001001be001d
:1045c00031dabf00040001000000e000b0003a0052
:1045d00090c3b30032fab70000502000c0d1880069
:1045e000ab00370001d9800021079800190037007f
:1045f0002e009000c0409000014f78001e80fb000c
:10460000c300dd0060aa2100008040001002780095
:104610001e80fb004300dd00e400400060aa210092
:10462000008040001001be0031dabf00040001002c
:104630000000e00004003a0090c3b30032fab70073
:1046400000502000c0d188002e009000900078001b
:10465000210798002e0090000000e000e4ff3a00df
:104660008b003700c1d18000000f200080806000e7
:10467000710798007e0090000000e0008400320086
:10468000fe009000f08f50000100320080003700e3
:10469000c0d180006f006000600798006e0090003d
:1046a000e20f50007a003200ee009000e28f5000de
:1046b00007003e006e0090000000e0007400320031
:1046c000ee009000e18f50000b00320070003700c8
:1046d0006e009000e40f50006d003200ee0090007c
:1046e000e48f50000e0039006e009000e50f50007e
:1046f00016003200660037009444a80050012000e4
:1047000000d18800000420000024880082c4a80092
:10471000c0d180000000e800c0d188005c003700f4
:104720009444a9009404a800b000200000d188009f
:10473000000420000024880082c4a800c0d18000aa
:104740000000e800c0d18800510037000040200080
:10475000c0d188004e003700c0d18000010f20007a
:10476000010060000000e000010032004800370056
:1047700080002000a02488000000eb006024880056
:10478000f00f2000502488000000eb001024880067
:10479000f00f2000002488000000eb008024880037
:1047a000f00f2000702488008c04a80032dabf00cb
:1047b0000080fb005007980040032000de009000be
:1047c000808f50001800320040032000de0090006f
:1047d000808f500008003c005e009000e70f500002
:1047e0001400320030032000de009000808f500063
:1047f000160032001800370050032000de00900041
:10480000808f50000500320090032000de009000f1
:10481000808f50000a0032000f00370080c0b300c4
:10482000004f78000e00370000c1b300004f780041
:104830000b00370010c1b300004f780008003700ac
:1048400020c1b300004f78000500370030c1b3002d
:10485000004f78000200370040c1b300004f7800dd
:104860009e80fb0031dabf0014002000050020000c
:1048700042a32100cad3020000000000c1d1800081
:1048800000ff20000080600070004000c0d1880060
:104890004f0478000080fa00000006000400fa00cf
:1048a000204798003147980011a3210091407800db
:1048b0002e40900080cf500015003a00e0d88000d4
:1048c000000f7800100037001e007800c0589000dc
:1048d0003e40900080cf500009003a009e007800d2
:1048e000214090000050a000a04098009e00780059
:1048f000214090000070a000a04098000400370004
:104900001e007800100f78001e00e000eeff3a0055
:104910000080fa00000006000c00fa0040479800f2
:1049200051479800320798004307980011a32100cf
:10493000914078004e40900080cf50000900320036
:10494000be00900060c0b300804878004e01900027
:104950006000b8000089be001000200050079800d9
:104960003f003700e1d8800011079800340037007d
:104970001e009000c05890005e40900080cf500014
:104980002c003a001e009000204090000080fb00a8
:104990004700de00004f78001e009000204090008d
:1049a0000044b2000004e00009003200be009000a4
:1049b0000040eb00804878001e00900090089000b6
:1049c000000890004e0190000089be0016003700dc
:1049d0001e00900020409000684060000004e0004d
:1049e00004003200be00900010c1b300804878007f
:1049f0000d0037001e0090002040900070406000c5
:104a00000004e000050032001e009000e058900015
:104a10003e0090000148780003003700be0090007f
:104a200090c1b300804878001e80fb0050079800ba
:104a30000b0037001e0090009000780011079800ce
:104a40001e0090000000e000c9ff3a00be00900088
:104a500040c1b30080487800100020005007980043
:104a60005e0090000080fa00000006000600fa00d8
:104a7000000f780021479800324798002e409000a0
:104a8000e14f400012003a003e4090000004e00078
:104a90000f003a00c00020009e0f100005003a00f1
:104aa00090f907003c1aa9000000eb0020079800cd
:104ab00009003700f00020009e0f100004003a00ab
:104ac0003c1aa8000000eb00200798000200370005
:104ad00030002000200798002e0090000080fa008f
:104ae000000006000c00fa002047980031479800ab
:104af00022079800340798004507980011a3210069
:104b0000914078002e40900080cf5000030032008a
:104b1000600020005007980047003700c1d1800096
:104b200000f020008080600000402000808f500056
:104b30000300320010002000500798003e003700ac
:104b4000e0d88000000f7800370037001e007800a2
:104b5000c05890003e40900080cf500030003a0096
:104b60001e007800e0089000003020000080600007
:104b70000000e00003003a00800120005007980088
:104b80002d0037001e007800405890000004e0001f
:104b900003003d0050012000500798002600370018
:104ba0001e00780020409000684060000004e00093
:104bb0000300320010012000500798001e0037004b
:104bc0001e00780020409000704060000004e0006b
:104bd0000300320020012000500798001600370023
:104be0001e007800a040900000c8b30000c0600024
:104bf0000004e00003003a00000120005007980084
:104c00000d0037003e019000ae0090001e007800bd
:104c1000de0307000000eb00500798000600370095
:104c20001e007800100f78001e00e000c7ff3a0059
:104c300040012000500798005e0090000080fa00bc
:104c4000000006000000fa0011d180002140900011
:104c50000040a100a040980011d1800021409000a8
:104c60000030a100a04098001ddabf000040e9001c
:104c70001dfab7001ddabf000004e0000500320095
:104c8000c0d1800001ff2f0001006000c0d188006a
:104c90000d0037001edabf000040e9001efab70021
:104ca0001edabf000004e000030032000011200003
:104cb000c0d188000400370070c0b30032fab700da
:104cc00000502000c0d188000080fa0000000600db
:104cd0000a00fa00204798003147980042479800a0
:104ce000330798000000eb00000f78002f0037001a
:104cf0001e0078004300dd00e6004000e0aa21002d
:104d000000804000100078000000d1006140600089
:104d1000e14f500024003a001e007800c300dd007f
:104d2000e0aa210000804000904078002e409000d2
:104d300080cf50001c003a001e007800c300dd0048
:104d4000e0aa210000804000904090003e4090008a
:104d500080cf500014003a001e0078004300dd00b0
:104d60008080e800e0aa21000080400090407800a8
:104d70004e40900080cf50000b003a001e0078009b
:104d80004300dd00e4004000e0aa21000080400074
:104d9000904090003e0090000148780010002000f4
:104da00040079800050037001e0fe8001e00e000d5
:104db000cfff34000000eb00400798004e00900049
:104dc0000080fa00000006000600fa00d0d880003b
:104dd000000f78000000eb001007980036daa900f9
:104de000680037001e0090004300dd00e600400030
:104df000e0aa210000804000100078000000d100ef
:104e0000614060000004e0001e0032001e009000bf
:104e1000c300dd00e0aa210000804000904078003f
:104e20001e0078004040900080cf500033003a00d0
:104e30001e009000c300dd00e0aa210000804000b9
:104e4000904090001e0078005040900080cf5000ad
:104e50002a003a001e0090004300dd008080e80038
:104e6000e0aa210000804000904078001e007800f9
:104e70006040900080cf500020003a0036daa80051
:104e80001e0037001e009000c300dd00e0aa2100d4
:104e900000804000900178009e007800014890005a
:104ea0000081fb00114890000080fb004800dd00fd
:104eb00002007000808f510010003a001e00900028
:104ec0004300dd008080e800e0aa2100008040006f
:104ed000900178009e007800214890000081fb003e
:104ee000314890000080fb004800dd0002007000a7
:104ef000808f510001003a0036daa80036dabf0090
:104f00000044b2000004e0001b0032001e009000cc
:104f10004300dd00e4004000e0aa210000804000e2
:104f20001040900033fab7001e0090004300dd00ef
:104f3000e6004000e0aa2100008040001000780058
:104f40004200de00614060000004e0000700320023
:104f50001e0090004300dd00e4004000e0aa2100b4
:104f600000804000104078002efab70010002000aa
:104f700020079800080037001e0090000000e8009d
:104f8000100798001e0090000000e00095ff32001e
:104f90000000eb00200798002e0090000080fa002f
:104fa000000006000600fa002047980031479800ec
:104fb00000d98000000f78000d0037001e00780037
:104fc000a04090002e40900080cf500008003a0092
:104fd0001e007800b04090003e40900080cf50000e
:104fe00003003a001e0078002007980004003700f4
:104ff0001e00e000f1ff3a000000eb0020079800df
:105000002e0090000080fa00000006001400fa0054
:105010000000eb00000f7800c0d1800094c4bf00f6
:105020000042b2000004e000c4013a0024dabf00ec
:10503000614060000004e00020013a00e0d88000f8
:1050400010079800190137001e009000e00890003a
:1050500000302000008060000000e00010013a00f5
:105060001e009000a040900000c8b30000c0600087
:105070000004e0000a013a001e00900010d18800f0
:105080001e009000005890008080fb00000f200060
:1050900080806000110f9800000220009e089000a0
:1050a000808f50004f003200000320009e089000c7
:1050b000808f50009d0032001e089000f00f5000bd
:1050c00001003200eb0037001e00900000589000f5
:1050d0000080fb006f006000000f98008e089000b9
:1050e000e18f50001a0032000e089000e10f5000ce
:1050f00004003c008e0890000100e000080032002f
:10510000350037000e089000e20f500022003200f8
:105110008e089000ef8f5000270032002e003700dd
:1051200011d18000314090000010a100b0409800e3
:10513000d0c0b300d60407001e0090004058900075
:10514000d1c0b300a8040700241aa8007b013700cf
:1051500012d1800010d180009008900000089000cb
:10516000500198006101980011d1800031409000f9
:105170000010a000b040980090c0b300c404070025
:105180001e0090004058900091c0b30096040700a4
:10519000241aa800690137009e0090000040eb002f
:1051a000805898009e009000214090000070a00060
:1051b000a0409800b10037009e0090000040eb0036
:1051c000805898009e009000214090000070a00040
:1051d000a0409800a900370010002000000f7800c0
:1051e000a60037001e009000005890000080fb00d1
:1051f0006f006000700798007e009000e20f500082
:1052000025003200fe009000e28f500007003c00b5
:105210007e0090000000e0000b003200fe009000d5
:10522000e18f5000140032003d0037007e009000f6
:10523000e30f50002a003200fe009000ef8f500074
:105240002f0032003600370011d18000314090002d
:105250000010a100b0409800d0c0b3008c0407003b
:105260001e00900040589000d1c0b3005e040700bb
:10527000241aa8003101370090c0b300840407004d
:105280001e0090004058900091c0b30056040700e3
:10529000241aa8002901370012d1800010d1800003
:1052a000900890000008900050019800610198005b
:1052b00011d18000314090000010a000b040980053
:1052c00010c0b300720407001e0090004058900008
:1052d00011c0b30044040700241aa80017013700c6
:1052e0009e0090000040eb00805898009e009000c7
:1052f000214090000070a000a04098005f0037009f
:105300009e0090000040eb00805898009e009000a6
:10531000214090000070a000a04098005700370086
:1053200010002000000f7800540037001e0090008d
:10533000005890000080fb006f006000600798003c
:105340006e009000e20f500025003200ee00900049
:10535000e28f500007003c006e0090000000e0006b
:105360000b003200ee009000e18f5000140032007c
:105370003d0037006e009000e30f50002a0032001d
:10538000ee009000ef8f50002f0032003600370003
:1053900011d18000314090000010a100b040980071
:1053a000d0c0b3003a0407001e009000405890009f
:1053b000d1c0b3000c040700241aa800df00370096
:1053c00010c0b300320407001e0090004058900047
:1053d00011c0b30004040700241aa800d700370046
:1053e00012d1800010d18000900890000008900039
:1053f000500198006101980011d180003140900067
:105400000010a000b040980090c0b3002004070036
:105410001e0090004058900091c0b300f2030700b6
:10542000241aa800c50037009e0090000040eb0041
:10543000805898009e009000214090000070a000cd
:10544000a04098000d0037009e0090000040eb0047
:10545000805898009e009000214090000070a000ad
:10546000a04098000500370010002000000f7800d1
:105470000200370010002000000f78001e00e0003e
:10548000070032009e0090000040eb00805898001a
:105490009e009000214090000070a000a040980065
:1054a0001e00900090007800110798001e009000e8
:1054b0000000e000e4fe3a00241aa80024dabf004d
:1054c000684060000004e0009c003a00e0d88000e2
:1054d000100798000040eb00404798008d0037000f
:1054e0001e009000e00890000030200080806000e6
:1054f00000202000808f500083003a001e009000a2
:10550000a040900000c8b30000c060000004e000ac
:105510007d003a001e009000304090006440600022
:105520000004e00078003a004e4090000040e8009f
:1055300040479800a1a22100914078004e40900081
:1055400080cf5000700031001e00900010d1880004
:105550004e4090002afab7001e00900000589000bc
:105560008080fb00000f20008080600051079800c1
:1055700000082000de009000808f500005003200ff
:1055800000092000de009000808f50002a003200c9
:10559000520037001e009000005890000080fb0071
:1055a0006f006000400798004e009000e10f50002f
:1055b0000e003200ce009000ef8f5000130032003a
:1055c0004e0090000000e00001003200170037009c
:1055d00090c0b300ae0307001e009000405890003a
:1055e00091c0b30080030700540037009e00900074
:1055f0000040eb00805898009e00900021409000f1
:105600000070a000a0409800360037009e00900077
:105610000040eb00805898009e00900021409000d0
:105620000070a000a04098002e003700100020005d
:10563000000f78002b0037001e00900000589000eb
:105640000080fb006f00600030079800be009000f3
:10565000e18f50000e0032003e009000ef0f50002e
:1056600013003200be0090000100e0000100320093
:105670001700370010c0b300850307001e0090001c
:105680004058900011c0b300570307002b003700ab
:105690009e0090000040eb00805898009e00900013
:1056a000214090000070a000a04098000d0037003d
:1056b0009e0090000040eb00805898009e009000f3
:1056c000214090000070a000a04098000500370025
:1056d00010002000000f78000200370010002000aa
:1056e000000f78001e00e000070032009e009000ce
:1056f0000040eb00805898009e00900021409000f0
:105700000070a000a04098001e009000900078005b
:10571000110798001e0090000000e00070ff3a00a2
:105720004e4090000004e000030032000040eb0017
:105730002afab70061ff3700247aa8000080fa0037
:10574000000006000200fa000800370000d98000bf
:1057500010007800000f780000d980004c03020090
:10576000000000001e00780000d9880000d98000e9
:105770000000e000f5ff3a00e0d880000000e00003
:10578000130032000b003700e0d8800010007800d2
:1057900010007800000f7800e0d88000100078003a
:1057a0004c03020000000000e1d880001e007800d9
:1057b00080087800e0d88000100078000000e00049
:1057c000f1ff3a00e1d880000000eb00800878008b
:1057d000e0d8800010d188000080fa0000000600a8
:1057e0000200fa000c003700b0d8800010009000d2
:1057f000000f7800b0d88000100078004c03020041
:1058000000000000b0d880004c030200000000003f
:105810001e007800b0d88800b0d880000000e000fa
:10582000f1ff3a00d0d880000000e000050032000f
:10583000d0d880004c030200000000000000eb0004
:10584000d0d88800f0d880000000e00005003200c9
:10585000f0d880004c030200000000000000eb00c4
:10586000f0d88800b7ff07000080fa0000000600ab
:105870000a00fa00000f780011079800220798002c
:1058800033079800440798009e007800214090005c
:105890000030a100a04098009e00780021409000b8
:1058a0000040a100a04098009e0078002140900098
:1058b0000050a100a04098009e0078002140900078
:1058c0000060a100a04098009e0078002140900058
:1058d0000000a1000010a1000020a100a04098003d
:1058e0009e007800314090000020a100b040980058
:1058f0001e007800be009000310898001e0178005c
:105900006000b80000099800110998004e0090004e
:10591000010020001e0178005001980061019800ec
:105920009e0078000000eb00801098001e007800b8
:105930009e009000210898001e007800ae009000a4
:10594000710098009e00780000c2b3008058980053
:105950009e007800214090000070a100a0409800b7
:105960000080fa00000006000a00fa00000f78002c
:105970001107980022079800330798004407980001
:105980009e007800214090000030a100a0409800c7
:105990009e007800214090000040a100a0409800a7
:1059a0009e007800214090000050a100a040980087
:1059b0009e007800214090000060a100a040980067
:1059c0009e007800214090000000a1000010a1007e
:1059d0000020a100a04098009e0078003140900077
:1059e0000020a100b04098001e007800be0090008a
:1059f000310898001e0178006000b8000009980086
:105a0000110998004e009000010020001e0178004e
:105a100050019800610198009e0078000000eb00a2
:105a2000801098001e0078009e00900021089800c9
:105a30001e007800ae009000710098004e009000ab
:105a40000000e00004003a009e00780000c1b300ae
:105a500080589800030037009e00780000c3b30010
:105a6000805898009e007800214090000070a100ae
:105a7000a04098000080fa00000006000600fa002e
:105a8000000f780011079800220798009e00780008
:105a9000214090000050a100a04098009e00780096
:105aa000214090000060a100a04098009e00780076
:105ab000214090000000a1000010a1000020a100e2
:105ac000a04098009e007800314090000020a10086
:105ad000b04098001e0078009e00900031089800a9
:105ae0001e0178006000b8000009980011099800b4
:105af0002e009000010020001e0178005001980047
:105b0000610198009e0078000000eb008010980072
:105b10001e007800e00890000030200080806000c7
:105b200000302000808f500004003a009e00780072
:105b300000c4b300805898000e0037001e007800a3
:105b4000e0089000003020008080600000102000fd
:105b5000808f500004003a009e00780000c6b30019
:105b600080589800030037009e00780000c8b300fa
:105b7000805898009e007800214090000070a1009d
:105b8000a04098000080fa00000006000600fa001d
:105b9000000f780011079800220798009e007800f7
:105ba000214090000050a100a04098009e00780085
:105bb000214090000060a100a04098009e00780065
:105bc000214090000000a1000010a1000020a100d1
:105bd000a04098009e007800314090000020a10075
:105be000b04098001e0078009e0090003108980098
:105bf0001e0178006000b8000009980011099800a3
:105c00002e009000010020001e0178005001980035
:105c1000610198009e0078000000eb008010980061
:105c20001e007800e00890000030200080806000b6
:105c300000302000808f500004003a009e00780061
:105c400000c5b300805898000e0037001e00780091
:105c5000e0089000003020008080600000102000ec
:105c6000808f500004003a009e00780000c7b30007
:105c700080589800030037009e00780000c9b300e8
:105c8000805898009e007800214090000070a1008c
:105c9000a04098000080fa00000006000a00fa0008
:105ca0002047980021079800320798004307980082
:105cb00036dabf000044b2000004e0000f003200fa
:105cc00033dabf000080fb004300dd008080e80085
:105cd00060aa210000804000900178004e009000f2
:105ce000010020000002be003e019000ae009000c6
:105cf0002e409000030001001600370000d98000fc
:105d0000000f7800110037001e007800404090001e
:105d10000080fb004300dd008080e80060aa2100d5
:105d200000804000900178004e00900001002000ab
:105d30000002be003e019000ae0090002e40900098
:105d4000030001001e007800100f78001e00e00024
:105d5000edff3a000080fa00000006001e00fa0085
:105d60000000eb0030079800c0d88000000f7800da
:105d70000040eb00004f98000040eb00304f9800cf
:105d8000363aa900365aa8001e00780090407800e4
:105d9000415798001e0fe8001e00780090407800e0
:105da000615798001e0fe8001e0078001040780030
:105db0000080fb00600798001e0fe8001e007800be
:105dc000104078000080fb004800dd008000780073
:105dd0006e00900001004000600798001e0fe80070
:105de0001e00780090407800215798001e0fe800b0
:105df0001e00780090407800214f98001e0fe800a8
:105e00001e0fe8001e0fe8001e007800904078008a
:105e100011579800790047009e509000114098005b
:105e2000f90047000040eb00804878007901470006
:105e30002400200005002000d100200000c0eb005d
:105e4000cad30200000000000000e00005003a0094
:105e500080c2b30032fab7000000eb00600f980078
:105e6000470137004e5090008080fb003e009000bc
:105e70000100400030079800c1d880003e0090002b
:105e8000008f40002c0137001e0078009040780001
:105e9000415798001e0fe8001e00780090407800df
:105ea000615798001e0fe8006e509000e94f5000b7
:105eb0000f003a00363aa8001e0078001040780023
:105ec0002ffab7002fdabf000080fb000000d100de
